{
    "_format": "hh-sol-artifact-1",
    "contractName": "NFTMarket",
    "sourceName": "contracts/NFTMarket.sol",
    "abi": [
        {
            "inputs": [],
            "stateMutability": "nonpayable",
            "type": "constructor"
        },
        {
            "anonymous": false,
            "inputs": [
                {
                    "indexed": true,
                    "internalType": "uint256",
                    "name": "itemId",
                    "type": "uint256"
                },
                {
                    "indexed": true,
                    "internalType": "address",
                    "name": "nftContract",
                    "type": "address"
                },
                {
                    "indexed": true,
                    "internalType": "uint256",
                    "name": "tokenId",
                    "type": "uint256"
                },
                {
                    "indexed": false,
                    "internalType": "address",
                    "name": "seller",
                    "type": "address"
                },
                {
                    "indexed": false,
                    "internalType": "address",
                    "name": "owner",
                    "type": "address"
                },
                {
                    "indexed": false,
                    "internalType": "uint256",
                    "name": "price",
                    "type": "uint256"
                },
                {
                    "indexed": false,
                    "internalType": "bool",
                    "name": "sold",
                    "type": "bool"
                }
            ],
            "name": "MarketItemCreated",
            "type": "event"
        },
        {
            "inputs": [
                {
                    "internalType": "address",
                    "name": "nftContract",
                    "type": "address"
                },
                {
                    "internalType": "uint256",
                    "name": "tokenId",
                    "type": "uint256"
                },
                {
                    "internalType": "uint256",
                    "name": "price",
                    "type": "uint256"
                }
            ],
            "name": "createMarketItem",
            "outputs": [],
            "stateMutability": "payable",
            "type": "function"
        },
        {
            "inputs": [
                {
                    "internalType": "address",
                    "name": "nftContract",
                    "type": "address"
                },
                {
                    "internalType": "uint256",
                    "name": "itemId",
                    "type": "uint256"
                }
            ],
            "name": "createMarketSale",
            "outputs": [],
            "stateMutability": "payable",
            "type": "function"
        },
        {
            "inputs": [],
            "name": "fetchItemsCreated",
            "outputs": [
                {
                    "components": [
                        {
                            "internalType": "uint256",
                            "name": "itemId",
                            "type": "uint256"
                        },
                        {
                            "internalType": "address",
                            "name": "nftContract",
                            "type": "address"
                        },
                        {
                            "internalType": "uint256",
                            "name": "tokenId",
                            "type": "uint256"
                        },
                        {
                            "internalType": "address payable",
                            "name": "seller",
                            "type": "address"
                        },
                        {
                            "internalType": "address payable",
                            "name": "owner",
                            "type": "address"
                        },
                        {
                            "internalType": "uint256",
                            "name": "price",
                            "type": "uint256"
                        },
                        {
                            "internalType": "bool",
                            "name": "sold",
                            "type": "bool"
                        }
                    ],
                    "internalType": "struct NFTMarket.MarketItem[]",
                    "name": "",
                    "type": "tuple[]"
                }
            ],
            "stateMutability": "view",
            "type": "function"
        },
        {
            "inputs": [],
            "name": "fetchMarketItems",
            "outputs": [
                {
                    "components": [
                        {
                            "internalType": "uint256",
                            "name": "itemId",
                            "type": "uint256"
                        },
                        {
                            "internalType": "address",
                            "name": "nftContract",
                            "type": "address"
                        },
                        {
                            "internalType": "uint256",
                            "name": "tokenId",
                            "type": "uint256"
                        },
                        {
                            "internalType": "address payable",
                            "name": "seller",
                            "type": "address"
                        },
                        {
                            "internalType": "address payable",
                            "name": "owner",
                            "type": "address"
                        },
                        {
                            "internalType": "uint256",
                            "name": "price",
                            "type": "uint256"
                        },
                        {
                            "internalType": "bool",
                            "name": "sold",
                            "type": "bool"
                        }
                    ],
                    "internalType": "struct NFTMarket.MarketItem[]",
                    "name": "",
                    "type": "tuple[]"
                }
            ],
            "stateMutability": "view",
            "type": "function"
        },
        {
            "inputs": [],
            "name": "fetchMyNFTs",
            "outputs": [
                {
                    "components": [
                        {
                            "internalType": "uint256",
                            "name": "itemId",
                            "type": "uint256"
                        },
                        {
                            "internalType": "address",
                            "name": "nftContract",
                            "type": "address"
                        },
                        {
                            "internalType": "uint256",
                            "name": "tokenId",
                            "type": "uint256"
                        },
                        {
                            "internalType": "address payable",
                            "name": "seller",
                            "type": "address"
                        },
                        {
                            "internalType": "address payable",
                            "name": "owner",
                            "type": "address"
                        },
                        {
                            "internalType": "uint256",
                            "name": "price",
                            "type": "uint256"
                        },
                        {
                            "internalType": "bool",
                            "name": "sold",
                            "type": "bool"
                        }
                    ],
                    "internalType": "struct NFTMarket.MarketItem[]",
                    "name": "",
                    "type": "tuple[]"
                }
            ],
            "stateMutability": "view",
            "type": "function"
        },
        {
            "inputs": [],
            "name": "getListingPrice",
            "outputs": [
                {
                    "internalType": "uint256",
                    "name": "",
                    "type": "uint256"
                }
            ],
            "stateMutability": "view",
            "type": "function"
        },
        {
            "inputs": [
                {
                    "internalType": "uint256",
                    "name": "_price",
                    "type": "uint256"
                }
            ],
            "name": "setListingPrice",
            "outputs": [
                {
                    "internalType": "uint256",
                    "name": "",
                    "type": "uint256"
                }
            ],
            "stateMutability": "nonpayable",
            "type": "function"
        }
    ],
    "bytecode": "0x608060405234801561001057600080fd5b50600160008190555033600360006101000a81548173ffffffffffffffffffffffffffffffffffffffff021916908373ffffffffffffffffffffffffffffffffffffffff160217905550611b30806100696000396000f3fe6080604052600436106100705760003560e01c806358eb2df51161004e57806358eb2df5146100f65780637c726b6914610112578063c23b139e1461014f578063f064c32e1461016b57610070565b80630f08efe01461007557806312e85585146100a0578063202e3740146100cb575b600080fd5b34801561008157600080fd5b5061008a610196565b6040516100979190611769565b60405180910390f35b3480156100ac57600080fd5b506100b56104c2565b6040516100c291906117eb565b60405180910390f35b3480156100d757600080fd5b506100e06104cc565b6040516100ed9190611769565b60405180910390f35b610110600480360381019061010b9190611466565b61087c565b005b34801561011e57600080fd5b50610139600480360381019061013491906114b5565b610b9c565b60405161014691906117eb565b60405180910390f35b6101696004803603810190610164919061142a565b610baf565b005b34801561017757600080fd5b50610180610ee6565b60405161018d9190611769565b60405180910390f35b606060006101a46001611296565b905060006101b26002611296565b6101bc6001611296565b6101c691906118e1565b90506000808267ffffffffffffffff81111561020b577f4e487b7100000000000000000000000000000000000000000000000000000000600052604160045260246000fd5b60405190808252806020026020018201604052801561024457816020015b61023161137f565b8152602001906001900390816102295790505b50905060005b848110156104b757600073ffffffffffffffffffffffffffffffffffffffff166005600060018461027b919061188b565b815260200190815260200160002060040160009054906101000a900473ffffffffffffffffffffffffffffffffffffffff1673ffffffffffffffffffffffffffffffffffffffff1614156104a4576000600560006001846102dc919061188b565b81526020019081526020016000206000015490506000600560008381526020019081526020016000209050806040518060e0016040529081600082015481526020016001820160009054906101000a900473ffffffffffffffffffffffffffffffffffffffff1673ffffffffffffffffffffffffffffffffffffffff1673ffffffffffffffffffffffffffffffffffffffff168152602001600282015481526020016003820160009054906101000a900473ffffffffffffffffffffffffffffffffffffffff1673ffffffffffffffffffffffffffffffffffffffff1673ffffffffffffffffffffffffffffffffffffffff1681526020016004820160009054906101000a900473ffffffffffffffffffffffffffffffffffffffff1673ffffffffffffffffffffffffffffffffffffffff1673ffffffffffffffffffffffffffffffffffffffff168152602001600582015481526020016006820160009054906101000a900460ff161515151581525050848681518110610487577f4e487b7100000000000000000000000000000000000000000000000000000000600052603260045260246000fd5b602002602001018190525060018561049f919061188b565b945050505b80806104af906119a2565b91505061024a565b508094505050505090565b6000600454905090565b606060006104da6001611296565b905060008060005b83811015610583573373ffffffffffffffffffffffffffffffffffffffff1660056000600184610512919061188b565b815260200190815260200160002060040160009054906101000a900473ffffffffffffffffffffffffffffffffffffffff1673ffffffffffffffffffffffffffffffffffffffff1614156105705760018361056d919061188b565b92505b808061057b906119a2565b9150506104e2565b5060008267ffffffffffffffff8111156105c6577f4e487b7100000000000000000000000000000000000000000000000000000000600052604160045260246000fd5b6040519080825280602002602001820160405280156105ff57816020015b6105ec61137f565b8152602001906001900390816105e45790505b50905060005b84811015610871573373ffffffffffffffffffffffffffffffffffffffff1660056000600184610635919061188b565b815260200190815260200160002060040160009054906101000a900473ffffffffffffffffffffffffffffffffffffffff1673ffffffffffffffffffffffffffffffffffffffff16141561085e57600060056000600184610696919061188b565b81526020019081526020016000206000015490506000600560008381526020019081526020016000209050806040518060e0016040529081600082015481526020016001820160009054906101000a900473ffffffffffffffffffffffffffffffffffffffff1673ffffffffffffffffffffffffffffffffffffffff1673ffffffffffffffffffffffffffffffffffffffff168152602001600282015481526020016003820160009054906101000a900473ffffffffffffffffffffffffffffffffffffffff1673ffffffffffffffffffffffffffffffffffffffff1673ffffffffffffffffffffffffffffffffffffffff1681526020016004820160009054906101000a900473ffffffffffffffffffffffffffffffffffffffff1673ffffffffffffffffffffffffffffffffffffffff1673ffffffffffffffffffffffffffffffffffffffff168152602001600582015481526020016006820160009054906101000a900460ff161515151581525050848681518110610841577f4e487b7100000000000000000000000000000000000000000000000000000000600052603260045260246000fd5b6020026020010181905250600185610859919061188b565b945050505b8080610869906119a2565b915050610605565b508094505050505090565b600260005414156108c2576040517f08c379a00000000000000000000000000000000000000000000000000000000081526004016108b9906117cb565b60405180910390fd5b60026000819055506000811161090d576040517f08c379a0000000000000000000000000000000000000000000000000000000008152600401610904906117ab565b60405180910390fd5b61091760016112a4565b60006109236001611296565b90506040518060e001604052808281526020018573ffffffffffffffffffffffffffffffffffffffff1681526020018481526020013373ffffffffffffffffffffffffffffffffffffffff168152602001600073ffffffffffffffffffffffffffffffffffffffff16815260200183815260200160001515815250600560008381526020019081526020016000206000820151816000015560208201518160010160006101000a81548173ffffffffffffffffffffffffffffffffffffffff021916908373ffffffffffffffffffffffffffffffffffffffff1602179055506040820151816002015560608201518160030160006101000a81548173ffffffffffffffffffffffffffffffffffffffff021916908373ffffffffffffffffffffffffffffffffffffffff16021790555060808201518160040160006101000a81548173ffffffffffffffffffffffffffffffffffffffff021916908373ffffffffffffffffffffffffffffffffffffffff16021790555060a0820151816005015560c08201518160060160006101000a81548160ff0219169083151502179055509050508373ffffffffffffffffffffffffffffffffffffffff166323b872dd3330866040518463ffffffff1660e01b8152600401610b04939291906116ed565b600060405180830381600087803b158015610b1e57600080fd5b505af1158015610b32573d6000803e3d6000fd5b50505050828473ffffffffffffffffffffffffffffffffffffffff16827f045dfa01dcba2b36aba1d3dc4a874f4b0c5d2fbeb8d2c4b34a7d88c8d8f929d1336000876000604051610b869493929190611724565b60405180910390a4506001600081905550505050565b6000816004819055506004549050919050565b60026000541415610bf5576040517f08c379a0000000000000000000000000000000000000000000000000000000008152600401610bec906117cb565b60405180910390fd5b6002600081905550600060056000838152602001908152602001600020600501549050600060056000848152602001908152602001600020600201549050610c72346040518060400160405280600d81526020017f6d6573736167652076616c7565000000000000000000000000000000000000008152506112ba565b610cb1826040518060400160405280600581526020017f70726963650000000000000000000000000000000000000000000000000000008152506112ba565b813414610cf3576040517f08c379a0000000000000000000000000000000000000000000000000000000008152600401610cea9061178b565b60405180910390fd5b6005600084815260200190815260200160002060030160009054906101000a900473ffffffffffffffffffffffffffffffffffffffff1673ffffffffffffffffffffffffffffffffffffffff166108fc349081150290604051600060405180830381858888f19350505050158015610d6f573d6000803e3d6000fd5b508373ffffffffffffffffffffffffffffffffffffffff166323b872dd3033846040518463ffffffff1660e01b8152600401610dad939291906116ed565b600060405180830381600087803b158015610dc757600080fd5b505af1158015610ddb573d6000803e3d6000fd5b50505050336005600085815260200190815260200160002060040160006101000a81548173ffffffffffffffffffffffffffffffffffffffff021916908373ffffffffffffffffffffffffffffffffffffffff16021790555060016005600085815260200190815260200160002060060160006101000a81548160ff021916908315150217905550610e6d60026112a4565b600360009054906101000a900473ffffffffffffffffffffffffffffffffffffffff1673ffffffffffffffffffffffffffffffffffffffff166108fc6004549081150290604051600060405180830381858888f19350505050158015610ed7573d6000803e3d6000fd5b50505060016000819055505050565b60606000610ef46001611296565b905060008060005b83811015610f9d573373ffffffffffffffffffffffffffffffffffffffff1660056000600184610f2c919061188b565b815260200190815260200160002060030160009054906101000a900473ffffffffffffffffffffffffffffffffffffffff1673ffffffffffffffffffffffffffffffffffffffff161415610f8a57600183610f87919061188b565b92505b8080610f95906119a2565b915050610efc565b5060008267ffffffffffffffff811115610fe0577f4e487b7100000000000000000000000000000000000000000000000000000000600052604160045260246000fd5b60405190808252806020026020018201604052801561101957816020015b61100661137f565b815260200190600190039081610ffe5790505b50905060005b8481101561128b573373ffffffffffffffffffffffffffffffffffffffff166005600060018461104f919061188b565b815260200190815260200160002060030160009054906101000a900473ffffffffffffffffffffffffffffffffffffffff1673ffffffffffffffffffffffffffffffffffffffff161415611278576000600560006001846110b0919061188b565b81526020019081526020016000206000015490506000600560008381526020019081526020016000209050806040518060e0016040529081600082015481526020016001820160009054906101000a900473ffffffffffffffffffffffffffffffffffffffff1673ffffffffffffffffffffffffffffffffffffffff1673ffffffffffffffffffffffffffffffffffffffff168152602001600282015481526020016003820160009054906101000a900473ffffffffffffffffffffffffffffffffffffffff1673ffffffffffffffffffffffffffffffffffffffff1673ffffffffffffffffffffffffffffffffffffffff1681526020016004820160009054906101000a900473ffffffffffffffffffffffffffffffffffffffff1673ffffffffffffffffffffffffffffffffffffffff1673ffffffffffffffffffffffffffffffffffffffff168152602001600582015481526020016006820160009054906101000a900460ff16151515158152505084868151811061125b577f4e487b7100000000000000000000000000000000000000000000000000000000600052603260045260246000fd5b6020026020010181905250600185611273919061188b565b945050505b8080611283906119a2565b91505061101f565b508094505050505090565b600081600001549050919050565b6001816000016000828254019250508190555050565b61135282826040516024016112d0929190611806565b6040516020818303038152906040527f0fa3f345000000000000000000000000000000000000000000000000000000007bffffffffffffffffffffffffffffffffffffffffffffffffffffffff19166020820180517bffffffffffffffffffffffffffffffffffffffffffffffffffffffff8381831617835250505050611356565b5050565b60008151905060006a636f6e736f6c652e6c6f679050602083016000808483855afa5050505050565b6040518060e0016040528060008152602001600073ffffffffffffffffffffffffffffffffffffffff16815260200160008152602001600073ffffffffffffffffffffffffffffffffffffffff168152602001600073ffffffffffffffffffffffffffffffffffffffff168152602001600081526020016000151581525090565b60008135905061140f81611acc565b92915050565b60008135905061142481611ae3565b92915050565b6000806040838503121561143d57600080fd5b600061144b85828601611400565b925050602061145c85828601611415565b9150509250929050565b60008060006060848603121561147b57600080fd5b600061148986828701611400565b935050602061149a86828701611415565b92505060406114ab86828701611415565b9150509250925092565b6000602082840312156114c757600080fd5b60006114d584828501611415565b91505092915050565b60006114ea8383611641565b60e08301905092915050565b6114ff81611927565b82525050565b61150e81611915565b82525050565b61151d81611915565b82525050565b600061152e82611846565b6115388185611869565b935061154383611836565b8060005b8381101561157457815161155b88826114de565b97506115668361185c565b925050600181019050611547565b5085935050505092915050565b61158a81611939565b82525050565b61159981611939565b82525050565b60006115aa82611851565b6115b4818561187a565b93506115c481856020860161196f565b6115cd81611a1a565b840191505092915050565b60006115e5603c8361187a565b91506115f082611a2b565b604082019050919050565b600061160860188361187a565b915061161382611a7a565b602082019050919050565b600061162b601f8361187a565b915061163682611aa3565b602082019050919050565b60e08201600082015161165760008501826116cf565b50602082015161166a6020850182611505565b50604082015161167d60408501826116cf565b50606082015161169060608501826114f6565b5060808201516116a360808501826114f6565b5060a08201516116b660a08501826116cf565b5060c08201516116c960c0850182611581565b50505050565b6116d881611965565b82525050565b6116e781611965565b82525050565b60006060820190506117026000830186611514565b61170f6020830185611514565b61171c60408301846116de565b949350505050565b60006080820190506117396000830187611514565b6117466020830186611514565b61175360408301856116de565b6117606060830184611590565b95945050505050565b600060208201905081810360008301526117838184611523565b905092915050565b600060208201905081810360008301526117a4816115d8565b9050919050565b600060208201905081810360008301526117c4816115fb565b9050919050565b600060208201905081810360008301526117e48161161e565b9050919050565b600060208201905061180060008301846116de565b92915050565b600060408201905061181b60008301856116de565b818103602083015261182d818461159f565b90509392505050565b6000819050602082019050919050565b600081519050919050565b600081519050919050565b6000602082019050919050565b600082825260208201905092915050565b600082825260208201905092915050565b600061189682611965565b91506118a183611965565b9250827fffffffffffffffffffffffffffffffffffffffffffffffffffffffffffffffff038211156118d6576118d56119eb565b5b828201905092915050565b60006118ec82611965565b91506118f783611965565b92508282101561190a576119096119eb565b5b828203905092915050565b600061192082611945565b9050919050565b600061193282611945565b9050919050565b60008115159050919050565b600073ffffffffffffffffffffffffffffffffffffffff82169050919050565b6000819050919050565b60005b8381101561198d578082015181840152602081019050611972565b8381111561199c576000848401525b50505050565b60006119ad82611965565b91507fffffffffffffffffffffffffffffffffffffffffffffffffffffffffffffffff8214156119e0576119df6119eb565b5b600182019050919050565b7f4e487b7100000000000000000000000000000000000000000000000000000000600052601160045260246000fd5b6000601f19601f8301169050919050565b7f506c65617365207375626d6974207468652061736b696e67207072696365206960008201527f6e206f7264657220746f20636f6d706c65746520707572636861736500000000602082015250565b7f5072696365206d7573742062652061626f7665207a65726f0000000000000000600082015250565b7f5265656e7472616e637947756172643a207265656e7472616e742063616c6c00600082015250565b611ad581611915565b8114611ae057600080fd5b50565b611aec81611965565b8114611af757600080fd5b5056fea264697066735822122093d07e5b462be567191025a8075a565259caa58ee1d83efd2df0df93b4e8ee2464736f6c63430008040033",
    "linkReferences": {},
    "deployedLinkReferences": {}
}